{
  "_format": "hh-sol-artifact-1",
  "contractName": "KPIManager",
  "sourceName": "contracts/KPIManager.sol",
  "abi": [
    {
      "inputs": [],
      "stateMutability": "nonpayable",
      "type": "constructor"
    },
    {
      "inputs": [
        {
          "internalType": "address",
          "name": "owner",
          "type": "address"
        }
      ],
      "name": "OwnableInvalidOwner",
      "type": "error"
    },
    {
      "inputs": [
        {
          "internalType": "address",
          "name": "account",
          "type": "address"
        }
      ],
      "name": "OwnableUnauthorizedAccount",
      "type": "error"
    },
    {
      "inputs": [],
      "name": "ReentrancyGuardReentrantCall",
      "type": "error"
    },
    {
      "anonymous": false,
      "inputs": [
        {
          "indexed": true,
          "internalType": "string",
          "name": "hash",
          "type": "string"
        },
        {
          "indexed": true,
          "internalType": "uint256",
          "name": "baseline",
          "type": "uint256"
        },
        {
          "indexed": true,
          "internalType": "uint256",
          "name": "savings",
          "type": "uint256"
        },
        {
          "indexed": false,
          "internalType": "uint256",
          "name": "newTotalBaseline",
          "type": "uint256"
        },
        {
          "indexed": false,
          "internalType": "uint256",
          "name": "newTotalSavings",
          "type": "uint256"
        },
        {
          "indexed": false,
          "internalType": "address",
          "name": "sender",
          "type": "address"
        },
        {
          "indexed": false,
          "internalType": "uint256",
          "name": "timestamp",
          "type": "uint256"
        }
      ],
      "name": "KPIsSet",
      "type": "event"
    },
    {
      "anonymous": false,
      "inputs": [
        {
          "indexed": true,
          "internalType": "string",
          "name": "hash",
          "type": "string"
        },
        {
          "indexed": false,
          "internalType": "uint256",
          "name": "previousTotalBaseline",
          "type": "uint256"
        },
        {
          "indexed": false,
          "internalType": "uint256",
          "name": "previousTotalSavings",
          "type": "uint256"
        },
        {
          "indexed": false,
          "internalType": "uint256",
          "name": "newTotalBaseline",
          "type": "uint256"
        },
        {
          "indexed": false,
          "internalType": "uint256",
          "name": "newTotalSavings",
          "type": "uint256"
        },
        {
          "indexed": false,
          "internalType": "uint256",
          "name": "entryCount",
          "type": "uint256"
        }
      ],
      "name": "KPIsUpdated",
      "type": "event"
    },
    {
      "anonymous": false,
      "inputs": [
        {
          "indexed": true,
          "internalType": "address",
          "name": "previousOwner",
          "type": "address"
        },
        {
          "indexed": true,
          "internalType": "address",
          "name": "newOwner",
          "type": "address"
        }
      ],
      "name": "OwnershipTransferred",
      "type": "event"
    },
    {
      "inputs": [],
      "name": "getAllHashes",
      "outputs": [
        {
          "internalType": "string[]",
          "name": "",
          "type": "string[]"
        }
      ],
      "stateMutability": "view",
      "type": "function"
    },
    {
      "inputs": [
        {
          "internalType": "string[]",
          "name": "hashes",
          "type": "string[]"
        }
      ],
      "name": "getBatchKPIs",
      "outputs": [
        {
          "internalType": "uint256[]",
          "name": "baselines",
          "type": "uint256[]"
        },
        {
          "internalType": "uint256[]",
          "name": "savings",
          "type": "uint256[]"
        },
        {
          "internalType": "uint256[]",
          "name": "entryCounts",
          "type": "uint256[]"
        },
        {
          "internalType": "bool[]",
          "name": "existsFlags",
          "type": "bool[]"
        }
      ],
      "stateMutability": "view",
      "type": "function"
    },
    {
      "inputs": [],
      "name": "getGlobalStats",
      "outputs": [
        {
          "internalType": "uint256",
          "name": "totalUniqueHashes",
          "type": "uint256"
        },
        {
          "internalType": "uint256",
          "name": "globalBaseline",
          "type": "uint256"
        },
        {
          "internalType": "uint256",
          "name": "globalSavings",
          "type": "uint256"
        },
        {
          "internalType": "uint256",
          "name": "totalEntries",
          "type": "uint256"
        }
      ],
      "stateMutability": "view",
      "type": "function"
    },
    {
      "inputs": [],
      "name": "getHashCount",
      "outputs": [
        {
          "internalType": "uint256",
          "name": "",
          "type": "uint256"
        }
      ],
      "stateMutability": "view",
      "type": "function"
    },
    {
      "inputs": [
        {
          "internalType": "string",
          "name": "hash",
          "type": "string"
        }
      ],
      "name": "getKPIs",
      "outputs": [
        {
          "internalType": "uint256",
          "name": "totalBaseline",
          "type": "uint256"
        },
        {
          "internalType": "uint256",
          "name": "totalSavings",
          "type": "uint256"
        },
        {
          "internalType": "uint256",
          "name": "entryCount",
          "type": "uint256"
        },
        {
          "internalType": "bool",
          "name": "exists",
          "type": "bool"
        }
      ],
      "stateMutability": "view",
      "type": "function"
    },
    {
      "inputs": [
        {
          "internalType": "string",
          "name": "hash",
          "type": "string"
        }
      ],
      "name": "hashExists",
      "outputs": [
        {
          "internalType": "bool",
          "name": "",
          "type": "bool"
        }
      ],
      "stateMutability": "view",
      "type": "function"
    },
    {
      "inputs": [],
      "name": "owner",
      "outputs": [
        {
          "internalType": "address",
          "name": "",
          "type": "address"
        }
      ],
      "stateMutability": "view",
      "type": "function"
    },
    {
      "inputs": [],
      "name": "renounceOwnership",
      "outputs": [],
      "stateMutability": "nonpayable",
      "type": "function"
    },
    {
      "inputs": [
        {
          "internalType": "string",
          "name": "hash",
          "type": "string"
        },
        {
          "internalType": "uint256",
          "name": "baseline",
          "type": "uint256"
        },
        {
          "internalType": "uint256",
          "name": "savings",
          "type": "uint256"
        }
      ],
      "name": "setKPIs",
      "outputs": [],
      "stateMutability": "nonpayable",
      "type": "function"
    },
    {
      "inputs": [
        {
          "internalType": "address",
          "name": "newOwner",
          "type": "address"
        }
      ],
      "name": "transferOwnership",
      "outputs": [],
      "stateMutability": "nonpayable",
      "type": "function"
    }
  ],
  "bytecode": "0x608060405234801561001057600080fd5b50338061003757604051631e4fbdf760e01b81526000600482015260240160405180910390fd5b6100408161004a565b506001805561009a565b600080546001600160a01b038381166001600160a01b0319831681178455604051919092169283917f8be0079c531659141344cd1fd0a4f28419497f9722a3daafe3b4186f6b6457e09190a35050565b610fbc806100a96000396000f3fe608060405234801561001057600080fd5b506004361061009e5760003560e01c80639871e510116100665780639871e5101461012d578063aaf6580514610150578063e33f057e14610185578063f2fde38b14610198578063fe99f742146101ab57600080fd5b806344ca78a5146100a35780636b4169c3146100cf578063715018a6146100f757806383b3847a146101015780638da5cb5b14610112575b600080fd5b6100b66100b1366004610a77565b6101c0565b6040516100c69493929190610b75565b60405180910390f35b6100d7610406565b6040805194855260208501939093529183015260608201526080016100c6565b6100ff6104d8565b005b6003546040519081526020016100c6565b6000546040516001600160a01b0390911681526020016100c6565b61014061013b366004610bf5565b6104ec565b60405190151581526020016100c6565b61016361015e366004610bf5565b61051a565b60408051948552602085019390935291830152151560608201526080016100c6565b6100ff610193366004610c32565b610586565b6100ff6101a6366004610c80565b610802565b6101b3610840565b6040516100c69190610cd4565b6060806060806000855190508067ffffffffffffffff8111156101e5576101e56109c0565b60405190808252806020026020018201604052801561020e578160200160208202803683370190505b5094508067ffffffffffffffff81111561022a5761022a6109c0565b604051908082528060200260200182016040528015610253578160200160208202803683370190505b5093508067ffffffffffffffff81111561026f5761026f6109c0565b604051908082528060200260200182016040528015610298578160200160208202803683370190505b5092508067ffffffffffffffff8111156102b4576102b46109c0565b6040519080825280602002602001820160405280156102dd578160200160208202803683370190505b50915060005b818110156103fd576000600288838151811061030157610301610d4e565b60200260200101516040516103169190610d64565b9081526040805160209281900383018120608082018352805480835260018201549483019490945260028101549282019290925260039091015460ff1615156060820152885190925088908490811061037157610371610d4e565b602002602001018181525050806020015186838151811061039457610394610d4e565b60200260200101818152505080604001518583815181106103b7576103b7610d4e565b60200260200101818152505080606001518483815181106103da576103da610d4e565b9115156020928302919091019091015250806103f581610d96565b9150506102e3565b50509193509193565b60035460008080805b6003548110156104d157600060026003838154811061043057610430610d4e565b906000526020600020016040516104479190610de9565b9081526040805160209281900383018120608082018352805480835260018201549483019490945260028101549282019290925260039091015460ff161515606082015291506104979086610e5f565b94508060200151846104a99190610e5f565b93508060400151836104bb9190610e5f565b92505080806104c990610d96565b91505061040f565b5090919293565b6104e0610919565b6104ea6000610946565b565b60006002826040516104fe9190610d64565b9081526040519081900360200190206003015460ff1692915050565b60008060008060006002866040516105329190610d64565b908152604080516020928190038301812060808201835280548083526001820154948301859052600282015493830184905260039091015460ff161515606090920182905299929850909650945092505050565b61058e610996565b60008351116105db5760405162461bcd60e51b8152602060048201526014602482015273486173682063616e6e6f7420626520656d70747960601b60448201526064015b60405180910390fd5b60008211806105ea5750600081115b6106485760405162461bcd60e51b815260206004820152602960248201527f4174206c65617374206f6e652076616c7565206d75737420626520677265617460448201526806572207468616e20360bc1b60648201526084016105d2565b600060028460405161065a9190610d64565b908152604051908190036020019020805460018201546003830154929350909160ff166106ce57600380546001810182556000919091527fc2575a0e9e593c00f959f8c92f12db2869c3395a3b0502d05e2516446f71f85b016106bd8782610ec6565b5060038301805460ff191660011790555b848360000160008282546106e29190610e5f565b92505081905550838360010160008282546106fd9190610e5f565b9250508190555060018360020160008282546107199190610e5f565b925050819055508385876040516107309190610d64565b604080519182900382208754600189015490845260208401523383830152426060840152905190917f79a1e23fa6cc05bf9495ac4347229a22f3d5fdce2d35f4419f1a389b0fd61ea6919081900360800190a4856040516107919190610d64565b60408051918290038220855460018701546002880154878652602086018790528585019290925260608501526080840152905190917faf516247211bab341dd3734c6e8b858a5d930ea9ee24d7b2105275f4d084cc17919081900360a00190a25050506107fd60018055565b505050565b61080a610919565b6001600160a01b03811661083457604051631e4fbdf760e01b8152600060048201526024016105d2565b61083d81610946565b50565b60606003805480602002602001604051908101604052809291908181526020016000905b8282101561091057838290600052602060002001805461088390610daf565b80601f01602080910402602001604051908101604052809291908181526020018280546108af90610daf565b80156108fc5780601f106108d1576101008083540402835291602001916108fc565b820191906000526020600020905b8154815290600101906020018083116108df57829003601f168201915b505050505081526020019060010190610864565b50505050905090565b6000546001600160a01b031633146104ea5760405163118cdaa760e01b81523360048201526024016105d2565b600080546001600160a01b038381166001600160a01b0319831681178455604051919092169283917f8be0079c531659141344cd1fd0a4f28419497f9722a3daafe3b4186f6b6457e09190a35050565b6002600154036109b957604051633ee5aeb560e01b815260040160405180910390fd5b6002600155565b634e487b7160e01b600052604160045260246000fd5b604051601f8201601f1916810167ffffffffffffffff811182821017156109ff576109ff6109c0565b604052919050565b600082601f830112610a1857600080fd5b813567ffffffffffffffff811115610a3257610a326109c0565b610a45601f8201601f19166020016109d6565b818152846020838601011115610a5a57600080fd5b816020850160208301376000918101602001919091529392505050565b60006020808385031215610a8a57600080fd5b823567ffffffffffffffff80821115610aa257600080fd5b818501915085601f830112610ab657600080fd5b813581811115610ac857610ac86109c0565b8060051b610ad78582016109d6565b9182528381018501918581019089841115610af157600080fd5b86860192505b83831015610b2d57823585811115610b0f5760008081fd5b610b1d8b89838a0101610a07565b8352509186019190860190610af7565b9998505050505050505050565b600081518084526020808501945080840160005b83811015610b6a57815187529582019590820190600101610b4e565b509495945050505050565b608081526000610b886080830187610b3a565b602083820381850152610b9b8288610b3a565b91508382036040850152610baf8287610b3a565b8481036060860152855180825282870193509082019060005b81811015610be6578451151583529383019391830191600101610bc8565b50909998505050505050505050565b600060208284031215610c0757600080fd5b813567ffffffffffffffff811115610c1e57600080fd5b610c2a84828501610a07565b949350505050565b600080600060608486031215610c4757600080fd5b833567ffffffffffffffff811115610c5e57600080fd5b610c6a86828701610a07565b9660208601359650604090950135949350505050565b600060208284031215610c9257600080fd5b81356001600160a01b0381168114610ca957600080fd5b9392505050565b60005b83811015610ccb578181015183820152602001610cb3565b50506000910152565b6000602080830181845280855180835260408601915060408160051b870101925083870160005b82811015610d4157878503603f1901845281518051808752610d22818989018a8501610cb0565b601f01601f191695909501860194509285019290850190600101610cfb565b5092979650505050505050565b634e487b7160e01b600052603260045260246000fd5b60008251610d76818460208701610cb0565b9190910192915050565b634e487b7160e01b600052601160045260246000fd5b600060018201610da857610da8610d80565b5060010190565b600181811c90821680610dc357607f821691505b602082108103610de357634e487b7160e01b600052602260045260246000fd5b50919050565b6000808354610df781610daf565b60018281168015610e0f5760018114610e2457610e53565b60ff1984168752821515830287019450610e53565b8760005260208060002060005b85811015610e4a5781548a820152908401908201610e31565b50505082870194505b50929695505050505050565b80820180821115610e7257610e72610d80565b92915050565b601f8211156107fd57600081815260208120601f850160051c81016020861015610e9f5750805b601f850160051c820191505b81811015610ebe57828155600101610eab565b505050505050565b815167ffffffffffffffff811115610ee057610ee06109c0565b610ef481610eee8454610daf565b84610e78565b602080601f831160018114610f295760008415610f115750858301515b600019600386901b1c1916600185901b178555610ebe565b600085815260208120601f198616915b82811015610f5857888601518255948401946001909101908401610f39565b5085821015610f765787850151600019600388901b60f8161c191681555b5050505050600190811b0190555056fea264697066735822122072b4dedc77bd855c41c0fb11c45d0af5a478d268e31aeb80b4e76ae9723266de64736f6c63430008140033",
  "linkReferences": {},
  "deployedLinkReferences": {}
}